:020000041000EA
:1000000000B5324B212058609868022188439860DF
:10001000D860186158612E4B002199600221596106
:100020000121F02299502B49196001219960352056
:1000300000F044F80222904214D00621196600F024
:1000400034F8196E01211966002018661A6600F04E
:100050002CF8196E196E196E052000F02FF8012189
:100060000842F9D1002199601B49196000215960AB
:100070001A491B48016001219960EB211966A021F2
:10008000196600F012F800219960164914480160C1
:100090000121996001BC002800D000471248134993
:1000A000086003C880F30888084703B5996A0420EC
:1000B0000142FBD001200142F8D103BD02B5186610
:1000C0001866FFF7F2FF186E186E02BD00000240BE
:1000D000000000180000070000035F00212200005C
:1000E000F4000018222000A00001001008ED00E03C
:1000F00000000000000000000000000074B24E7A12
:1001000000200420F7010010C3010010C5010010F9
:10011000C1010010C1010010C1010010C101001097
:10012000C1010010C1010010C1010010C701001081
:10013000C1010010C1010010C9010010CB01001065
:10014000CD010010CD010010CD010010CD01001037
:10015000CD010010CD010010CD010010CD01001027
:10016000CD010010CD010010CD010010CD01001017
:10017000CD010010CD010010CD010010CD01001007
:10018000CD010010CD010010CD010010CD010010F7
:10019000CD010010CD010010CD010010CD010010E7
:1001A000CD010010CD010010CD010010CD010010D7
:1001B000CD010010CD010010CD010010CD010010C7
:1001C00000BE00BE00BE00BE00BE00BE00F04BF888
:1001D000103800BEF2EB8871E49F001004A00010FC
:1001E0003402001090A31AE700202149086006C8D5
:1001F00081F3088810471F48006800282FD10DA4FC
:100200000ECC002902D000F012F8F9E71A491B4A77
:10021000002000E001C19142FCD1194988471949E9
:1002200088471949884700BEFDE701C901C29A42C3
:10023000FBD3704704A00010C0000020040400207D
:1002400048A30010000004200000042048A3001070
:1002500000100420001004200000000070470B482C
:1002600004F040FC0047EFF30580C0B27047000087
:1002700008ED00E0000000D0080400200813002072
:100280003530001081130010053100105756000062
:1002900006005250ABB360537898001006005250DD
:1002A000861C030288980010060052505422A29D1A
:1002B0009898001005005250DE65F46848A30010BD
:1002C000F8B5C04610B5064C2378002B07D1054B76
:1002D000002B02D0044800E000BF0123237010BDB2
:1002E000100500200000000068890010044B10B5C4
:1002F000002B03D00349044800E000BF10BDC046F6
:1003000000000000140500206889001010B51A4B89
:100310001B681A6D002A2CD0184941228A5C002AD9
:1003200027D01A6DC0239B011A604023CC5C002C9F
:100330000DD000202031844217D90F4B1B685A6F13
:10034000202AFAD00A781A6101300131F3E700213E
:100350000020002909D1084B1B685A6F202AFAD0C7
:1003600002781A6101310130F3E7044A4123002188
:10037000D154012010BDC046CC030020A41200209F
:1003800001207047012800D07047064B9942FBD1ED
:10039000054B002240215A5401315A5401315A541C
:1003A000F2E7C046FFFF0000A412002070B592B033
:1003B000C64805F07BFC02F029F80CAB0293002341
:1003C0000193C34B00936422002302F063F909AC4C
:1003D000FF232370FB3B63700422BE492620684440
:1003E00005F060FBBC4B0B930822002112206844EF
:1003F00005F052FBB94805F059FCB94B1B689B6FDF
:10040000002B15D1D0231B061B6DDB07F5D508F09B
:10041000DBF9030E012B00D13DE1022BF2D1020CDE
:10042000FD3313405B0004AA944663445880E9E717
:10043000AB4B1B689B6F002BFAD0A74A4223D35CBF
:10044000002BFAD1110042330122CA5400200028A7
:1004500009D1A34B1B689A6F002AFAD01B690B7055
:1004600001300131F3E79C4B4222002199541C7862
:1004700009AB1C70032C02D81B199B7800E00023E9
:10048000974A1268926F1D009A42F9D3924A42230A
:10049000D35C002BFAD1110042330122CA54002050
:1004A000854209D98E4B1B689A6F002AFAD01B69C6
:1004B0000B7001300131F3E7874A42230021D15408
:1004C000874B1B689B6F002B0ED000208249433165
:1004D0000028F5D1824B1B689A6F002AFAD01B695D
:1004E0000B7001300131F3E7022C00D1A1E01DD8DF
:1004F000002C00D188E0012C84D1774B18785B78F0
:100500001B020343D0221206126D9207FAD58020F7
:10051000C004184308F04EF96F4B20220021995473
:100520001F3A40315A5401315A546BE7032C00D121
:1005300098E000D266E72300803BDBB27F2B00D936
:1005400060E70F231C408F3B2343634920228B54D9
:1005500000211F3A32E0012A01D000230AE00132D3
:10056000D2B2FAE70020B04028435B4E21257055F7
:100570000133DBB2032B12D8574D21202D561E001C
:1005800004A8C018807A0028ECD00120EBE70020F6
:10059000B0402843504E212570550133DBB2072B64
:1005A0000AD84D4D21202D561E0004A8C018807B6E
:1005B0000028ECD00120EBE70131C9B203291CD897
:1005C00023000B41DB07F7D504AB1B78012BC2D905
:1005D000033BDBB2012BEFD84B0004A884466344F5
:1005E00058883D4B9D1820352870000A551C5B1912
:1005F000203318700232D2B2DEE7374B40215A5412
:1006000041223F399954FDE6D0231B061B6D9B0701
:10061000FAD5314C2378C020C004184308F0CAF83A
:1006200020230022E2541F3B4032A3540132A35442
:10063000E8E6294B18785B781B020343D0221206A8
:10064000126D9207FAD5C0208004184308F0B2F862
:10065000214B2022002199541F3A40315A54013134
:100660005A54CFE61C4B18785B781B020343D02208
:100670001206126D9207FAD5A020C004184308F0A4
:1006800099F8154B2022002199541F3A40315A54B1
:1006900001315A54B6E6C0B20023032B08D8012119
:1006A000014004AAD218917240080133DBB2F4E78A
:1006B0000023032B00D9A5E60121014004AAD2188A
:1006C000917340080133DBB2F3E7C046688900103C
:1006D0000D030010D88A0010A41200208C8900108D
:1006E000CC030020F0B585B0032942D8438804220A
:1006F000FF321A4383881A4302293CD007D80029C5
:100700000BD001290CD1A023DB011A4308E00329F7
:1007100006D1E023DB011A4302E08023DB011A4308
:100720001D4B13439BB2012242731A0A8273C37397
:10073000057C0D30040002F04BF906000F1E1EDB95
:100740000100164A002392197B419F4202D804D12E
:10075000914202D901225242D317002B15DB02929B
:100760000393002300930333220029000C4807F071
:10077000DCFF05B0F0BDC023DB011A43D0E7094B15
:10078000094A3D21094802F0C1FC064B064A3D21B9
:10079000064802F0BBFCC0460080FFFFA0860100B7
:1007A000D4030020A0890010BC890010F489001037
:1007B000F0B5C64600B584B004004173037C98468A
:1007C00005000D3502F004F906000F1E40DB0100A4
:1007D0002B4A002392197B419F4202D804D19142B7
:1007E00002D901225242D317002B37DB0292039326
:1007F0000023009301332A004146224807F095FF69
:10080000237C984602F0E4F806000F1E2CDB010062
:100810001B4A002392197B419F4202D804D1914286
:1008200002D901225242D317002B23DB02920393F9
:100830000023009302332A004146124807F094FF38
:10084000637B1B02A07B184304B080BCB846F0BD9C
:100850000D4B0E4A3D210E4802F058FC0A4B0B4A44
:100860003D210B4802F052FC074B084A3D21084845
:1008700002F04CFC044B054A3D21054802F046FCC1
:10088000A0860100D4030020A0890010BC890010BC
:10089000F4890010F0B5C64600B584B00600002407
:1008A0002BE0002342E001233B401818C0B27F0830
:1008B0000132D2B21F2AF6D94F69002206E0012385
:1008C0003B401818C0B27F080132D2B21F2AF6D9B5
:1008D0004B7E83422FD20B7E1F2B03D912230B7624
:1008E000113B0B706B01F318E222920094466344B3
:1008F0001B78002B2CD10134E4B2072C3AD8250008
:1009000023000833D02212065068D8406101E22348
:100910009B009C46614471184B695A000B69DF0FBC
:10092000D2194A615F00C307BBD50123FF180F61CD
:1009300000220020BEE78B7E8342D3D90B7E0F229C
:100940009343102BCED821230B76203B0B70C9E7A5
:100950006B01F318634400221A702900AA4805F0BD
:10096000D5F91D356D01A95D0F239943A74805F001
:10097000CDF9C0E7B123DB00F45801212000FFF7D7
:1009800017FF83B2DB0B020405D4002B08D104B09F
:1009900080BCB846F0BDA26822730022A271F4E7C1
:1009A0009B4BF45801212000FFF702FF83B2DB0BC1
:1009B000020430D4002BEAD0B123DB00F058002130
:1009C000FFF7F6FE00B20123C0229200904200DB46
:1009D0000023DCB2B223DB00F15C4901093BFF3BA1
:1009E0009C46614471184B695A000B69DD0F52191E
:1009F0004A615D00002C13D00123ED180D61002227
:100A000000241F2A0ED801232B401C19E4B26D08C4
:100A10000132D2B2F5E7A26822730022A271C9E7BF
:100A20000023EAE74D6900221F2A07D801232B4043
:100A30001C19E4B26D080132D2B2F5E74B7EA34235
:100A400020D20B7E1F2B03D912230B76113B0B7088
:100A5000B223DB00F35CDC00E41A24013419002823
:100A60002BDD6422A35C990008510133DBB2A3544F
:100A70000132A15C8B4202D364230022E2540023A2
:100A8000A36614E08B7EA342E2D90B7E0F22934330
:100A9000102BDDD821230B76203B0B70D8E79A0072
:100AA0001259A06E84466244A2660133DBB29942B9
:100AB000F5D8A06E04F06EF8E066554BF0580021B2
:100AC000FFF776FE00B20123C0229200904200DBC5
:100AD0000023DCB2B223DB00F15C04314901093BA5
:100AE000FF3B9C46614471184B695A000B69DD0F4E
:100AF00052194A615D00002C0ED00123ED180D61E2
:100B0000002200241F2A09D801232B401C19E4B21B
:100B10006D080132D2B2F5E70023EFE74D690022FC
:100B20001F2A07D801232B401C19E4B26D0801329B
:100B3000D2B2F5E74B7EA34221D20B7E1F2B03D905
:100B400012230B76113B0B70B223DB00F35C0433F2
:100B5000DC00E41A2401341900282BDD6422A35C94
:100B6000990008510133DBB2A3540132A15C8B42DE
:100B700002D364230022E2540023A36614E08B7E98
:100B8000A342E1D90B7E0F229343102BDCD8212303
:100B90000B76203B0B70D7E79A001259A06E844663
:100BA0006244A2660133DBB29942F5D8A06E03F02D
:100BB000F1FFE066B222D200B35C0133DBB2B35482
:100BC000032B02D913000022F254B123DB00F758A3
:100BD0000833F15C032948D878880423FF330343A2
:100BE000B8880343022958D007D8002912D0012918
:100BF00013D1A021C9010B430FE003290DD1E0213E
:100C0000C9010B4309E0C0463C8A0010648A001009
:100C10008C0500008021C9010B4348490B439BB25E
:100C200001217973190AB973FB733B7C98460D3720
:100C300001F0CEFE04000D1E33DB414A00231219E1
:100C40006B41994202D804D1904202D9012252420A
:100C5000D317002B2BDB0292039300230093033363
:100C60003A004146374807F060FD374BF4580433EB
:100C7000F15C032900D98AE660880423FF3303432B
:100C8000A0880343022949D017D800291BD0012985
:100C90001CD1A021C9010B4318E0C021C9010B439D
:100CA000BBE72A4B2A4A3D212A4802F02FFA274B5C
:100CB000274A3D21274802F029FA032906D1E021DD
:100CC000C9010B4302E08021C9010B431B490B43BF
:100CD0009BB201216173190AA173E373257C0D3462
:100CE00001F076FE06000F1E1CDB154A0023921948
:100CF0007B41994202D804D1904202D9012252424A
:100D0000D317002B14DB02920393002300930333C9
:100D1000220029000B4807F008FD38E6C021C90170
:100D20000B43D3E7094B0A4A3D210A4802F0EEF98A
:100D3000064B074A3D21074802F0E8F90080FFFF13
:100D4000A0860100D40300208C050000A0890010BB
:100D5000BC890010F4890010F0B5DE4657464E46B7
:100D60004546E0B589B0804607AB00221A705A703C
:100D7000466801F02DFE04000D1E00DAFFE005902C
:100D80000F00FA22920000233000002104F066FDDB
:100D900024184D41AF4203D805D1059BA34202D987
:100DA00001246442E517002D00DAEEE00294039579
:100DB00000240094022307AA2021A64807F0B5FCCE
:100DC000012302AA1375547543465E6801F000FEC4
:100DD00004000D1E00DADEE005900F00FA229200FA
:100DE00000233000002104F039FD24184D41AF42AA
:100DF00003D805D1059BA34202D901246442E5171B
:100E0000002D00DACDE00294039500240094022323
:100E100007AA20218F4807F088FC042302AA137533
:100E2000547543465E6801F0D3FD04000D1E00DAE0
:100E3000BDE005900F00FA2292000023300000214F
:100E400004F00CFD24184D41AF4203D805D1059B99
:100E5000A34202D901246442E517002D00DAACE078
:100E60000294039500240094022307AA20217948C4
:100E700007F05BFC052302AA1375547543465E68B0
:100E800001F0A6FD04000D1E00DA9CE005900F00A5
:100E9000FA22920000233000002104F0DFFC241825
:100EA0004D41AF4203D805D1059BA34202D901248D
:100EB0006442E517002D00DA8BE0029403950024CC
:100EC0000094022307AA2021624807F02EFC0C237D
:100ED00002AA1375547543465E6801F079FD04005B
:100EE0000D1E7CDB05900F00FA22920000233000DB
:100EF000002104F0B3FC24184D41AF4203D805D1C2
:100F0000059BA34202D901246442E517002D6CDB46
:100F10000294039500240094022307AA20214D483F
:100F200007F003FC0D2302AA1375547543465E684F
:100F300001F04EFD04000D1E5DDB05900F00FA224E
:100F4000920000233000002104F088FC24184D4159
:100F5000AF4203D805D1059BA34202D901246442C4
:100F6000E517002D4DDB0294039500230093023317
:100F700007AA2021374807F0D8FB00248EE0364B23
:100F8000364A3D21364802F0C1F8334B334A3D2101
:100F9000334802F0BBF8304B304A3D21304802F074
:100FA000B5F82D4B2D4A3D212D4802F0AFF82A4BC4
:100FB0002A4A3D212A4802F0A9F8274B274A3D2119
:100FC000274802F0A3F8244B244A3D21244802F08C
:100FD0009DF8214B214A3D21214802F097F81E4BF4
:100FE0001E4A3D211E4802F091F81B4B1B4A3D2131
:100FF0001B4802F08BF8184B184A3D21184802F0A4
:1010000085F8154B154A3D21154802F07FF8152249
:101010004DE0114B114A3D21114802F077F80E4B7B
:101020000E4A3D210E4802F071F80B4B0B4A3D2150
:101030000B4802F06BF8084B084A3D21084802F0C3
:1010400065F813218DE0044B044A3D21044802F069
:101050005DF8C046D4030020A0890010BC890010B0
:10106000F489001001204042C117002900DA97E0FE
:101070000290039100230093023307AA2021BC4869
:1010800007F053FB072C00D990E00122A240434611
:101090009B781343424693700134E4B2072C00D985
:1010A000CDE0072323409946072CB0D8142207AB84
:1010B0001A7043465B689B4601F08AFC06000F1ECF
:1010C000A7DB0590FA22920000235846002104F085
:1010D000C5FB801979418F4202D804D1864202D9DA
:1010E00001204042C117002999DB0290039100239F
:1010F0000093013307AA20219D4807F016FB4346C1
:101100005B689B4601F064FC06000F1E8DDB0590BA
:10111000FA22920000235846002104F09FFB801918
:1011200079418F4202D804D1864202D9012040423F
:10113000C117002900DA7EE707AD02900391002372
:10114000009301332A002021894807F00DFB2B78FA
:10115000012249468A401343DBB2072C00D970E7CD
:10116000122107AA1170537043465B689A4601F03A
:101170002FFC06000F1E00DA65E70590FA229200A8
:1011800000235046002104F069FB801979418F4209
:1011900000D967E700D068E7864200D865E761E7D5
:1011A000744B754A3D21754801F0B0FF2200083AA2
:1011B000012393401A004346DB7813434246D37021
:1011C0006AE7152244E06B4B6B4A3D216B4801F006
:1011D0009DFF684B684A3D21684801F097FF654BC9
:1011E000654A3D21654801F091FF624B624A3D210D
:1011F000624801F08BFF132182E05E4B5E4A3D2185
:101200005E4801F083FF01204042C117002900DA47
:1012100095E00290039100230093023307AA202156
:10122000534807F082FA072C00D98EE00122A24031
:1012300043469B781343424693700134E4B20F2C2B
:1012400000D98DE0072323409946072CB9D81422F2
:1012500007AB1A7043465B689B4601F0B9FB06007A
:101260000F1EB0DB0590FA229200002358460021A1
:1012700004F0F4FA801979418F4202D804D18642F1
:1012800002D901204042C1170029A2DB029003913C
:1012900000230093013307AA2021354807F045FABF
:1012A00043465B689B4601F093FB06000F1E96DBEE
:1012B0000590FA22920000235846002104F0CEFA4D
:1012C000801979418F4202D804D1864202D9012087
:1012D0004042C117002988DB07AD0290039100232B
:1012E000009301332A002021214807F03DFA2B7892
:1012F000012249468A409343072C00D97BE71221FB
:1013000007AA1170537043465B689A4601F060FB70
:1013100006000F1E00DA70E70590FA229200002303
:101320005046002104F09AFA801979418F4200D981
:1013300069E700D06AE7864200D867E763E70D4BAC
:101340000D4A3D210D4801F0E1FE2200083A01233B
:1013500093401A004346DB7813434246D3706CE750
:1013600009B0F0BCBB46B246A946A046F0BDC04697
:10137000D4030020A0890010BC890010F48900105B
:10138000F0B5CE46474680B57C4CA54404F0CAFC77
:101390007B4C7C49200007F085F95A22012120006E
:1013A00007F0AAF90321042000F004FC0321052022
:1013B00000F000FC00220121042000F013FC0022B8
:1013C0000121052000F00EFC6F49704807F06AF912
:1013D0000321022000F0EEFB0321032000F0EAFBD2
:1013E00000220121022000F0FDFB00220121032048
:1013F00000F0F8FB08240EE0200000F00DFC0123B3
:10140000A340D0221206936200220121200000F0A6
:10141000E9FB0134E4B20F2CEED95D4801F020FA6B
:101420005C4804F043FC5C4807F02AFAD0231B0612
:101430001B6DDB0705D507F0C7F9584804F036FCEB
:10144000F4E7574B6B4400229A710121494299609D
:101450001A731A7404321A70802080005880E131A7
:10146000998044321A740422FF3202430A438021D5
:10147000C90111434B4A0A4392B201215973110A1F
:101480009973DA7301F0A4FA02000B1E69DB3D4C7C
:10149000002512196B41994202D804D1904202D919
:1014A00001225242D317002B61DB029203930024E6
:1014B000009403233C4A6A444821344807F035F934
:1014C000D020C00068440026847101256D428560EB
:1014D0000473047404230370FD33FF334380213B02
:1014E000FF3B8380973B03740021FFF7FBF8CF207D
:1014F000C0006844048000238370C670FA239B00F8
:1015000043602A4B6B4410225A701E70284B6B4468
:10151000FF215D7030325A709C600022DA6059748D
:1015200042355D749C61DA61203D595544265E5513
:101530009C62DA6210355955BA3959559C63DA63A1
:10154000FFF70AFC072122AB002939DB00226420C7
:101550001A54013019241C549A66DA667033013922
:10156000F2E7144B144A3D21144801F0CFFD114B12
:10157000114A3D21114801F0C9FDC0464CF9FFFF59
:10158000CC030020A0860100801A0600D4030020AE
:10159000B80B00007C8A0010AD030010948A001084
:1015A000940600000080FFFFA10600007406000002
:1015B00034060000A0890010BC890010F4890010D6
:1015C00022ABE14A5168E02292009950002408328F
:1015D0009C5410329C5004329C5021200432985468
:1015E0003021DA4A99541022D94D5A5506355C55A6
:1015F00010355C5104355C5104355855D54D59555D
:10160000D54D5A5506355C5510355C5104355C5145
:1016100004355855D14D5955D14D5A5506355C555F
:1016200010355C5104355C5104355855CD4D595534
:10163000CD4D5A5506355C5510355C51CB4D5C513E
:1016400004355855CA4D5955CA4D5A5506355C553D
:1016500010355C51C84D5C5104355855C74D59552E
:10166000C74D5A5506355C5510355C51C54D5C511A
:1016700004355855C44D5955C44D5A5506355C5519
:1016800010355C51C24D5C5104355855C14D59550A
:10169000C14D5A5506355C5510355C51BF4D5C51F6
:1016A00004355855BE4D5955BE4D5A5506355C55F5
:1016B00010355C51BC4D5C5104355855BB4D5955E6
:1016C000BB4D5A5506355C5510355C51B94D5C51D2
:1016D00004355855B84D5955B84D5A5506355C55D1
:1016E00010355C51B64D5C5104355855B54D5955C2
:1016F000B54D5A5506355C5510355C51B34D5C51AE
:1017000004355855B24D5955B24D5A5506355C55AC
:1017100010355C51B04D5C5104355855AF4D59559D
:10172000AF4D5A5506355C5510355C51AD4D5C5189
:1017300004355855AC4D5955AC4D5A5506355C5588
:1017400010355C51AA4D5C5104355855A9481954BF
:10175000A9495A54B222D2009C5400200021903250
:101760006A4410605160C522D2006A441060516022
:10177000B122D200A14969449950A14AD021C9009F
:101780006944995000F042FE1CAB029301949D4BBA
:1017900000939D4A002300F07DFF002526E09B4B2F
:1017A0009B4A3D219B4801F0B1FC984B984A3D2152
:1017B000984801F0ABFC954B954A3D21954801F0C6
:1017C000A5FC01225242D317002B66DB0292039341
:1017D0000123009302331AAA41468F4806F0A5FF61
:1017E00002384342584120700135EDB2032D5AD8DA
:1017F0002C018A4B6B449C46644480239B016360AC
:101800001423A360FE239B05E360032200211AA892
:1018100004F042F905236A466821521813701B33FD
:101820006A460231521813706378984601F0D0F876
:1018300006000F1EB3DB0100794A002392197B4199
:101840009F4202D804D1914202D901225242D317B9
:10185000002BAADB029203930123009302331AAAFE
:1018600041466D4806F061FF1AAB05221A7002323C
:101870005A7000229A706378984601F0A9F8060021
:101880000F1E98DB0100664A002392197B419F429C
:1018900097D899D1914297D993E75C4B5C4A3D2107
:1018A0005C4801F033FC64236A466D2152181370C2
:1018B00000236A46013952181370BEE0534B544A54
:1018C0003D21544801F022FC504B514A3D215148E2
:1018D00001F01CFC4D4B4E4A3D214E4801F016FCD8
:1018E0004A4B4B4A3D214B4801F010FC474B484ABC
:1018F0003D21484801F00AFC444B454A3D214548FA
:1019000001F004FC04F006F802000B00454804F066
:10191000FDF90025072D00DD23E122AB9846EC0000
:10192000641B24011F19390008316822684604F03D
:10193000B9F84346E2587B6829003B4804F0E6F9D1
:101940000135E7E7002612E1D88A0010A103000064
:10195000A2030000C1030000C2030000E103000075
:10196000E203000001040000020400001C04000067
:1019700021040000220400003C0400004104000097
:10198000420400005C0400006104000062040000E6
:101990007C04000081040000820400009C0400001C
:1019A000A1040000A2040000BC040000C104000067
:1019B000C2040000DC040000E1040000E2040000B6
:1019C000FC04000001050000020500001C050000E9
:1019D00021050000220500003C0500004105000033
:1019E000420500005C050000610500006205000082
:1019F0007C050000810500008205000094060000BF
:101A00008C0500008103001040420F00A0890010E7
:101A1000BC890010F4890010D403002034060000B3
:101A200088130000988A0010B48A001006F0CCFEDB
:101A3000D0231B061B6DDB07F8D41AAA05231370ED
:101A4000544969444B6853701B0A93704E7800F0F8
:101A5000BFFF02000B1E00DA30E74F4C00251219C1
:101A60006B41994202D804D1904202D901225242DC
:101A7000D317002B00DA27E7029203930123009388
:101A800002331AAA3100454806F04FFE023843429D
:101A90005841404B6B4418701AAA042111705E78AB
:101AA00000F096FF02000B1E00DA13E73A4C002507
:101AB00012196B41994202D804D1904202D90122F5
:101AC0005242D317002B00DA0AE702920393012354
:101AD00000931AAA3100314806F027FE2D4B6B44C3
:101AE0005E7800F075FF02000B1E00DAFEE62A4C5D
:101AF000002512196B41994202D804D1904202D9B3
:101B000001225242D317002B00DAF5E6029203932A
:101B10000023009302331AAA3100204806F024FE65
:101B20000238434258411B4C6C4420706B4668227B
:101B30009B1818786B4601329B181B781B021843C0
:101B400000B203F0C5FE051CA06803F0BBFE011C3B
:101B5000281C03F0AAFE1BAB1E78B146002E00D154
:101B6000D0E64B46632B00D1ECE60136F6B26B466D
:101B70006C229B181E700A4B6B4469468A181288A7
:101B80001A8092B2D523DB006B441A8022A8FEF79C
:101B900081FE4DE73406000088130000D4030020C6
:101BA000AC06000010B502490120FEF7EBFB10BDAA
:101BB000FFFF000010B58300084A944663441C6888
:101BC00040226240C02414408022520113431C6012
:101BD000C000034B9C466044416010BD04C00140FE
:101BE0000040014080000B4B9C46604400290DD012
:101BF0000823002A0CD004221343026853400C220D
:101C00001340802252011043036070470023F0E725
:101C10000022F1E704C0014010B501238340D02227
:101C20001206936293610521FFF7C4FF10BD000007
:101C3000EFF3108072B6034B1B68002BFBD0BFF391
:101C40005F8F70472C0100D0BFF35F8F024B0022E3
:101C50001A6080F3108870472C0100D0F8B5050099
:101C60000C001600FFF7E4FFE308EF18EA5C072119
:101C700021401300CB40DB0707D401238B40DBB2AC
:101C800013433B70FFF7E0FFF8BD2100300001F087
:101C90005BFAF0B583B00600019114001F00FFF756
:101CA000C7FF050000E00134BC420ED8E208B018BE
:101CB000B15C072222400B00D340DB07F3D40123A1
:101CC0009340DBB21943017001E001246442280013
:101CD000FFF7BAFF002C02DB200003B0F0BD019B30
:101CE000002BF9D0089801F02FFA0000002307E03C
:101CF000054A9A189200BFF35F8F002111600133EB
:101D00001F2BF5D97047C04640000034054A1078B3
:101D1000431CDBB21370172B02D9130010221A7068
:101D20007047C046F002002000B583B00100044BAC
:101D300000931F2318220348FFF7ABFF03B000BD39
:101D4000E08A00106C090020034B1B680220184039
:101D5000431E9841C0B2704700C0064040BF0020FB
:101D60000021704710B50C00CB68834207D10800F2
:101D70000B699847002809D02068616810BD1E21B2
:101D8000054B064AFF31064801F0C0F90023E36025
:101D900000200021F2E7C046FC8A0010648D00108C
:101DA000108B001070B505000C00080000F004FE58
:101DB000200000F0E9FE0849200000F029FEFFF7AE
:101DC000A5FF064B9C466044800068602C75A4000B
:101DD000034BE55070BDC046B920001040000034F0
:101DE0009010002010B5002922D003681B7B994277
:101DF0001ED8174B9C466144090183689C46614488
:101E00000C684968002A19D003681B7B9A4215D8D0
:101E100083680F488446624412019A181068536818
:101E2000020001208B4201D80ED00020C0B210BDAC
:101E3000084B094A3921094801F068F9054B064A5F
:101E40003921064801F062F9A242EFD8EDE7C04619
:101E5000FFFFFF0F508B0010CC8D0010108B001077
:101E600010B500291ED0037B99421BD84B005B188C
:101E7000033B0468A4466344002919D0002A1DD0FE
:101E8000914221D0002A25D0047BA24222D80468A6
:101E900050008018033820188170197800291FD14C
:101EA0001A7010BD104B114A6921114801F02EF92A
:101EB000104B114A70310E4801F028F90F4B0E4AB1
:101EC00071210B4801F022F90D4B0B4A7221084891
:101ED00001F01CF9044B054A6921054801F016F987
:101EE00041701A70DDE7C046848B0010388E0010F8
:101EF000A08B0010EC8B0010148E0010F88B0010DB
:101F0000048C001070B506000D001400002914D0D8
:101F1000002A14D0806873689847002806D02200F1
:101F200029003000FFF79CFF280007E02A0021006D
:101F30003000FFF795FF200000E0100070BD0800A2
:101F4000FCE70000F0B583B00500009201930AABF6
:101F50001C780BAB1F78002C26D003685A7B944268
:101F600007D10123002B19D1002C3BD1200003B055
:101F7000F0BD002C0CD01A7B944209D81A6863007B
:101F80001B19033BD3189B78002BEBD00123E9E707
:101F90003E4B3F4A69213F4801F0B8F83E4B3F4A6B
:101FA00062213F4801F0B2F803689C7B002CDBD033
:101FB00012D01A7B94420FD862001219033A1968A2
:101FC0008C46624451789973002900D1D97300235B
:101FD000937053701370C7E72C4B2D4A69212D481D
:101FE00001F094F8002C3AD02B681B7B9C4236D829
:101FF0002C4BE3181B01AA6894466344009A1A60AC
:10200000019A5A60089A9A60099ADA602E68002C40
:102010002BD030D0337B9C422DD863001B19033B5F
:1020200032689446634400229A705A701A70717B29
:1020300022003000FFF766FF7073844200D095E7FE
:10204000287D009A019B00F02BFD061E01D0002F79
:1020500017D00C9B002B00D188E71E7086E7124B2F
:10206000124A39210E4801F051F8114B114AA621AC
:10207000084801F04BF8054B054A6921054801F075
:1020800045F82868210000F059FFE2E7848B001032
:10209000388E0010A08B00101C8C0010448E001095
:1020A000108B0010FFFFFF0F508B0010CC8D001025
:1020B0000C8B0010288E0010F0B5DE4657464E46B9
:1020C0004546E0B58BB00990002308938200B24BDF
:1020D000D658370032E0B14BB14A3D21B14801F04A
:1020E00015F8B14BB14A3921B14801F00FF8B14BA5
:1020F000B14A8921AE4801F009F8B04BAE4A8D21B2
:10210000AB4801F003F8A84BAD4A3E21A84800F0C7
:10211000FDFF2A686B68099800F0C2FC00239A460C
:1021200098467B68BFF35F8F00221A6086F31088A1
:102130004346002B51D1002800D126E100F048FC95
:1021400002000B1EC7DB0020002106900791786873
:10215000EFF3108672B601680029FCD0BFF35F8FE1
:10216000396888464C7B002C32D0BAD0097B8C422F
:10217000B7D8944965182D01B9688C46654428681C
:102180006968801A99410029C3DC01D10028C0D1B7
:102190000021404600F0C8FEA042A8D12A686B6822
:1021A00006920793AB689846EB689A464346002B25
:1021B000A3D0002CA7D03B681B7B9C42A3D8631EF6
:1021C000FA68D35C08931B02184338610020A8E723
:1021D00000239A4698460020A3E7089B1B0223434E
:1021E000994651461800C04705000E007A68EFF383
:1021F000108B72B6136859424B41D9B2002BF9D1FA
:10220000BFF35F8F002E26DB002E52DD3B69002BD3
:1022100053D04B4572D100F0DBFB02000B1E73DB89
:102220000100180052197341984202D804D191421A
:1022300002D901225242D317002B6BDB00210491FB
:1022400001310391029451460191414600913800B9
:10225000FFF778FE49E03B69002BD5D04B451CD1F8
:10226000069A079B10001900521BB341994202D8ED
:1022700004D1904202D901225242D317002B12DB23
:10228000002104910131039102945146019141468C
:1022900000913800FFF756FE27E04B4B464A9C2141
:1022A000434800F033FF3D4B3D4A3D213D4800F09F
:1022B0002DFF002E01D1002DA8D13A68002C45D069
:1022C000537B9C422CD1012100293FD1D37B002B91
:1022D00042D1D473002C52D03B681B7B9C424ED819
:1022E000FA68013C135D0133135500233B617A68A2
:1022F000BFF35F8F13608BF310881FE7324B2E4ABA
:102300009F212B4800F002FF244B254A3D21254800
:1023100000F0FCFE214B224A3D21224800F0F6FE4F
:10232000002C0DD0137B9C420AD863001B19033B81
:102330001068844663449B78002BC5D00121C3E715
:10234000224B234A6921234800F0E0FE224B234A16
:10235000F721204800F0DAFE002B0AD0117B8B42D7
:1023600007D85900CB18033B11688C4663445C7056
:10237000AFE7164B164A6921164800F0C7FE0A4B14
:102380000F4A3E210A4800F0C1FE0BB0F0BCBB462C
:10239000B246A946A046F0BD90100020A0890010CA
:1023A000988D0010F4890010508B0010CC8D001017
:1023B000108B0010448C0010B08D00105C8C00104D
:1023C000F08D0010FFFFFF0F688C0010848B001051
:1023D000388E0010A08B0010A48C0010048E00100A
:1023E00010B5084B5B68002B00D010BD054C2300D6
:1023F000054A1021206800F0B7FC03212000FFF7F8
:10240000D1FCF2E7F4020020E51D001010B5064BE8
:102410005B68002B01D0044810BD044B044A5921CD
:10242000044800F073FEC046F4020020C88C00107F
:10243000D88D0010108B0010F0B5DE4657464E4682
:102440004546E0B58BB0804616001F00149B9A46A7
:10245000159B994616AB1B789B461F2302AA9446F0
:10246000634400221A7032E0002809D04246126804
:10247000127B904204D8421E4146C9688A5C48E0FB
:10248000434B444A3E21444800F040FE0798002B4D
:1024900075D05B46002B72D04946D04704000D0032
:1024A00003000B4300D171E0002946DB00F090FAF5
:1024B00006000F1E55DB36196F41B94202D804D110
:1024C000B04202D901267642F717002F4FDB434670
:1024D0005A68EFF3108472B6136859424B41D9B26F
:1024E0000791002BF8D1BFF35F8F1F3302AA9446E8
:1024F000634404930023039302934B460193534692
:10250000009332003B004046FFF71CFD031EABD199
:10251000020041464968BFF35F8F00250D6084F3D8
:102520001088002B29D01F2302A98C4663441B78F6
:10253000002BABD112021043A9E732003B00361B3F
:10254000AF41BB4202D804D1B24202D90126764241
:10255000F717002FBBDA114B114A3D21114800F04B
:10256000D5FD0E4B0E4A3D210E4800F0CFFD0B4B22
:102570000B4A3D210B4800F0C9FD012040420BB041
:10258000F0BCBB46B246A946A046F0BD0798F6E7A8
:10259000508B0010F08D0010108B0010A0890010DF
:1025A000988D0010F4890010F8B504004268EFF32C
:1025B000108572B6136858424341D8B2002BF9D146
:1025C000BFF35F8FCBB22268567BB3421BD1012091
:1025D000002847D0206988422BD0090AC9B2002BB5
:1025E0002DD02068007B834229D8581EE668305CD5
:1025F00088422AD000206368BFF35F8F00221A60F0
:1026000085F31088F8BD002B0DD0167BB3420AD895
:102610005E00F618033E1768BC466644B678002E86
:10262000D6D00120D4E7124B124A6921124800F09B
:102630006DFD124B124AFB21124800F067FD124B50
:10264000124A3E210F4800F061FD1900100000F011
:1026500075FC0028CFD181210D4B094A490009485A
:1026600000F054FD23698B42C5D100232361C2E7EA
:10267000848B0010388E0010A08B0010EC8C0010A2
:10268000808D0010108B0010508B0010F08D00100A
:10269000108D0010F0B585B00700100019000C9ED9
:1026A00013000B4301D101200021B7600A9B336165
:1026B000306071600B9B7361CA17130050400400B7
:1026C00051400D00A41A9D4100F082F902000B1E3A
:1026D0001BDB0100180012196B41984202D804D18B
:1026E000914202D901225242D317002B13DB012160
:1026F000029101960B4900913800FFF79DFEF060B2
:10270000C317181AC00F05B0F0BD074B074A3D218B
:10271000074800F0FBFC044B044A3D21044800F04C
:10272000F5FCC046651D0010A0890010988D0010B2
:10273000F4890010F0B587B006000F00FDF793FD97
:1027400000281FD106246442E517A4197D41BD422B
:1027500002D803D1B44201D900240025002D14DB96
:102760000494059500F034F902000B1E13DBA41A43
:102770009D41002D17DC14D03000390000F034F9F1
:1027800007B0F0BD1A4800F0DFFC1A4B1A4A3D2191
:102790001A4800F0BBFC174B174A3D21174800F0C0
:1027A000B5FC002CE8D0FFF731FE00230293019323
:1027B000134B0093049A059BFFF73EFE002806DAB0
:1027C000DAE7002300E00023002BD5D120BF0499D5
:1027D000059A0C4B5B6A9A42F5D80A48806A88428F
:1027E00003D29A42EDD00123EEE70123ECE7C04685
:1027F000148D0010A0890010988D0010F48900102D
:102800005D1D001000400540F8B504000D0000F00B
:10281000DFF802000B1E10DB200029008018594150
:102820008B4202D804D1824202D901204042C11712
:10283000002908DBFFF77EFFF8BD064B064A3D2165
:10284000064800F063FC034B034A3D21034800F0B7
:102850005DFCC046A0890010988D0010F48900101E
:1028600010B5FA2292000023002102F0F7FFFFF7D3
:10287000CBFF10BD70B584B006000C00FFF7C6FD9D
:10288000002302930193194B009332002300FFF7BA
:10289000D3FD051E11DD20BFFFF7B8FD2900FFF7AE
:1028A00083FE134B5B6A9C421BD8114A926AB24268
:1028B0001AD29C4213D0012014E00D4B5B6A9C425B
:1028C00009D80B4A926AB24207D29C4201D0012039
:1028D00008E0002006E0002004E0012002E00020E3
:1028E00000E0002004B070BD0120FBE75D1D00107A
:1028F00000400540026843680849496A8B4209D88C
:102900000648806A904207D28B4201D0012002E043
:10291000002000E0002070470120FCE70040054057
:102920000260436000487047F528001070B5EFF36F
:1029300005833F2018401038EFF3108C72B6194B06
:102940001B68002BFBD0BFF35F8F01231900814070
:10295000154A5163154A12781400C440234214D01A
:10296000114B5C6A8300124D5B599C4206D3830075
:10297000104C1B598A430D490A7007E00A4A031D8F
:102980009B0099589950002300E00023BFF35F8F0C
:10299000044A002111608CF31088002B00D0984766
:1029A00070BDC046280100D000400540061300203D
:1029B000F01200205C09002010B50100024A034813
:1029C000FFF74CF910BDC0465C8E001003130020C9
:1029D000044B5B6A034A906A1900536A9942F9D121
:1029E0007047C04600400540084B5B6A01E0074B5A
:1029F0005B6A8B42FBD301E0044B5B6A8B4203D1E1
:102A0000024B9B6A8342F7D37047C04600400540A3
:102A100070B504000D00EFF3108672B61B4B1B68F7
:102A2000002BFBD0BFF35F8F002D1CD0200000F0E7
:102A300013FE174B83420BD01900200000F014FE48
:102A40000121200000F0F8FD0123A340114A13608A
:102A5000A400114BE550BFF35F8F0C4B00221A60AE
:102A600086F3108870BDA2000B4B0021D1500122CB
:102A7000A2400A490B7893430B700549200000F0EF
:102A80001DFE0021200000F0D7FDE4E7280100D062
:102A90002D290010386005405C0900200613002035
:102AA000F0B5DE4600B584B00400150001921E00AA
:102AB0000293FFF78DFF03958E4202D84ED18542D7
:102AC0004CD9EFF3108B72B6274B1B68002BFBD051
:102AD000BFF35F8F254A17780125A540EBB23B4332
:102AE0001370234B5D63221D92000199D150A20007
:102AF0002049029850501B6A2B4212D11C4B1B6C70
:102B00002B4208D00020BFF35F8F174B00221A60C2
:102B10008BF3108823E0184B184AB321184800F0B3
:102B2000F5FAFFF755FF8E4214D802D1039B83427A
:102B300010D80E4B1B78BB420ED00D4B1D625D634F
:102B40001F2004400123A3400E4A1360074B1F704F
:102B50001E38D8E70020D6E70120D4E7012004B0D2
:102B600080BCBB46F0BDC046280100D00613002043
:102B700000400540F0120020808E0010EC8E001006
:102B8000A48E001080E200E0EFF3108C72B60B4BC5
:102B90001B68002BFBD0BFF35F8F01238340084AE3
:102BA000136208490A789A430A70BFF35F8F034B98
:102BB00000221A608CF310887047C046280100D0AC
:102BC0000040054006130020024B9C4661448900EA
:102BD000016070474000003410B50400FFF796F81C
:102BE00001002000FFF7F0FFFF232371BFF35F8F89
:102BF00010BD10B5FFF7E8FFBFF35F8F10BD10B534
:102C000004000120FFF790F801002000FFF7F1FF1A
:102C100010BD000010B500291ED0037B99421BD8BF
:102C20004B005B18033B0468A4466344002919D099
:102C3000002A1DD0914221D0002A25D0047BA24237
:102C400022D8046850008018033820188170197841
:102C500000291FD11A7010BD104B114A692111486B
:102C600000F054FA104B114A70310E4800F04EFA41
:102C70000F4B0E4A71210B4800F048FA0D4B0B4ADE
:102C80007221084800F042FA044B054A69210548C0
:102C900000F03CFA41701A70DDE7C046848B0010EA
:102CA000BC900010A08B0010EC8B0010A8900010BE
:102CB000F88B0010048C001070B506000D00140095
:102CC000002914D0002A14D080687368984700281F
:102CD00006D0220029003000FFF79CFF280007E003
:102CE0002A0021003000FFF795FF200000E01000CF
:102CF00070BD0800FCE7000010B5002343730133EA
:102D00008373037BC3730123027B9A4214D9002B84
:102D10000CD0027B934209D85A00D218033A0168BA
:102D20008C4662440133DBB25370EDE70B4B0C4A27
:102D300069210C4800F0EAF9002A09D0924207D82C
:102D4000016853009A18033A8A180023537010BD83
:102D5000024B034A6921034800F0D8F9848B001024
:102D6000BC900010A08B001010B50173426083600E
:102D7000FFF7C2FF10BD000070B50400081E00D1AF
:102D800070BD002934D0237B994231D84B005B18A9
:102D9000033B2268944663445A78002AF0D02DD031
:102DA000237B9A422AD853009B18033B21688C4608
:102DB00063445D7800215970002825D0237B984218
:102DC00022D843001B18033B21688C466344002132
:102DD000597001002000FFF76FFF06002900200056
:102DE000FFF7CAFF020031002000FFF765FFC7E7C9
:102DF000084B094A6921094800F088F9054B064A41
:102E00006921064800F082F9024B034A6921034810
:102E100000F07CF9848B0010BC900010A08B001097
:102E200070B505000C001600002928D02DD0037BBA
:102E300099422AD84B005B18033B026894466344CE
:102E40005A78002A27D19A78002A2AD11978FFF7D0
:102E500093FF0300002E03D0EA7B002A27D1EC73F6
:102E6000002B37D1002C49D02B7B9C4246D82B68B5
:102E700061000C19033C1C190023637070BD224BC8
:102E8000224A3821224800F041F9224B224A692186
:102E9000224800F03BF9224B1C4A3A211C4800F022
:102EA00035F9204B194A3B21194800F02FF9002A27
:102EB0000AD0297B8A4207D851008A18033A296828
:102EC0008C4662445470CAE7124B134A6921134876
:102ED00000F01CF9002B0BD02A7B934208D843004A
:102EE0001B18033B2A689446634400229A70B9E792
:102EF000084B094A6921094800F008F9054B064AC0
:102F00006921064800F002F9C08F0010949000106B
:102F1000C88F0010848B0010BC900010A08B001094
:102F2000089000103090001070B504000A00457B36
:102F30002900FFF775FF6073280070BD70B50400AD
:102F4000002967D0437B8B420ED0002911D0037B30
:102F500099420ED84B005B18033B0268D018837867
:102F6000002B0CD1002056E00121FFF7DDFF0120EE
:102F700051E0294B294A6921294800F0C7F8002B64
:102F800020D0227B93421DD85A00D318033B2268DD
:102F9000D2182568EB5C8B421AD0002B1BD0227B09
:102FA000934218D85A00D318033B2268D21853789A
:102FB0008B4216D0002BF0D11A4B1B4A67211B48BD
:102FC00000F0A4F8144B154A6921154800F09EF84A
:102FD0004378137007E0104B104A6921104800F045
:102FE00095F84378537000238370437001222000CA
:102FF000FFF716FF0200617B814205D02000FFF73A
:103000005BFE6073012006E0094B074A6D2107480B
:1030100000F07CF8002070BD848B0010BC90001084
:10302000A08B0010549000107C900010C88F0010EE
:103030005C90001070B5234B234A1A60234B244A3E
:103040001A60244B9A68224B9343FAD1224C01E038
:1030500008CC9847214B9C42FAD300F001F91B4B56
:103060001F4A1A601B4B9B68DB43DB01FAD11D4BE7
:1030700040229A675A671A67DA661B4C03E0200001
:10308000FFF7AAFD0834194B9C42F8D3184CA168ED
:10309000184DC022280002F005FDA560FDF7E3F8F9
:1030A000002800D000BEFEF721FE00F069FCFFF70B
:1030B00097F9114C01E008CC9847104B9C42FAD389
:1030C00070BDC04600E00040BFCDFFFF00F00040F3
:1030D000FE7F3C0000C00040EC030020FC03002009
:1030E000FFFFFF0100F00140DC030020EC030020A3
:1030F00000ED00E000000020FC030020040400209C
:1031000000BEFDE710B5FFF7FBFF000010B582B071
:103110000C001900002A0CD0084B002A0BD0019299
:10312000009323000200064802F0F0FD0120FFF7A3
:10313000E7FF044BF1E7034AF1E7C046C8900010EF
:10314000D8900010D49000100FB400B583B0084898
:1031500002F0ACFD049B002B07D005A901911800DB
:1031600002F0B2FD034802F0A1FD0120FFF7C8FF05
:103170000891001018910010F8B5D646474680B562
:1031800006000D001700089A934243D3190E180247
:10319000089A002301F044FD80467400A419A4009D
:1031A0002A4B9C4664446368834200D26060331FAC
:1031B000DBB29A46012B33D9C0239B0123438022E3
:1031C00012011A60B300224A9958002905D05069AB
:1031D00001F0E0FC01300138FDD17F012268574049
:1031E000E022174080235B0123431F605246012ADF
:1031F00021D980239B012343802212011A60434678
:103200006360B600124B089AF2500120C0BCBA4667
:10321000B046F8BD0F4B104A2E211048FFF776FF3D
:10322000012DC9D1C0239B01234303221A60A36847
:10323000DB07FCD5D1E72168694003220A401A6008
:10324000A2680123AB401342FAD0D2E700800040CD
:10325000700900201C9100107C910010309100102A
:1032600030B583B00C2000F093F8FEF76DFD002818
:103270000DD0002304E09900334A344888500133CC
:10328000092BF8D9304B324A5A6203B030BD314B6A
:1032900000229A6700F0EAF82F4B01221A602D4BAA
:1032A0005B6C012BFBD12D4B03221A60294B9B6BCE
:1032B000012BFBD1C0239B01294A1360294A1360CB
:1032C000294B9A68C0239B019343F9D102240094AF
:1032D0000633264A0121264800F0DCF80094052335
:1032E000244A0121244800F0D5F8244B0093002201
:1032F00002210420FFF740FF214D00952B00002202
:1033000001210520FFF738FF104C00942300002214
:1033100000210720FFF730FF009423000022002146
:103320000820FFF729FF0A4B009323000022002109
:103330000920FFF721FF00952B0000220021062025
:10334000FFF71AFFA1E7C04670090020006CDC02FD
:103350001BB70000008000403CB0004030B000408F
:1033600000E0004000F0004000C00040002F68591D
:103370000080024000389C1C00C00240001BB700C7
:10338000405973078000014BC058704770090020F6
:1033900080239B000343014AD362704700800540AD
:1033A000024B1A68024B5A607047C04688100020D2
:1033B0000080054010B50200144B8020C005186045
:1033C000134B1448186000291BD0134BE021C9048B
:1033D0001960002A00D1323253019B1A98008018DC
:1033E00000010E4B186080235B04984202D30B4B04
:1033F0000B4A1A60FFF7D4FF074B8022D2051A60F0
:1034000010BD024BE021C9041960E2E700B005409D
:1034100008200140FCFF010000A0054088100020AA
:10342000FFFFFF0010B5030010000C4A8024E405E4
:103430001460002B0DD001221343094A094CD461BA
:10344000094C5C401462516293620021FFF7B2FFA5
:1034500010BD034B0022DA61F7E7C04600B005401B
:1034600000800540D3C007B02D3FF84F064BAA227D
:1034700012011A602F22DA60044B054A1A60024BCF
:103480005B68002BFBDA704700400240006002409E
:1034900000B0FA00F0B5CE4600B50400894616002B
:1034A0001D0001235B424360002383600C2001F078
:1034B00071FB07004B46236043011B1A9901C91A8F
:1034C000C90009188901300001F064FB0200103ABC
:1034D00098235B009A4220D86B1E062B23D8069BAC
:1034E000013B062B1FD8069B9D4222D33209BA42CC
:1034F00025D3A060221DC0239B01134321221A6003
:103500002268002AFCDA2D04069A16033543E5608A
:1035100008221A6080BCB946F0BD0C4B0C4A1A2137
:103520000C48FFF7F3FD0C4B094A1D210948FFF732
:10353000EDFD0A4B064A23210648FFF7E7FD084B3D
:10354000034A27210348FFF7E1FDC0468C91001094
:103550006C920010A8910010EC91001038920010AD
:1035600050920010074B9B68103080001950BFF339
:103570005F8FBFF35F8F044B0021196082F31088C7
:103580007047C04600ED00E0240100D010B5091AD4
:1035900004394808090B05D14005400D044B184378
:1035A00080B210BD034B044A8C210448FFF7AEFDE6
:1035B00000E0FFFF789200108894001088920010BD
:1035C00010B5091A04394C08090B08D14905490DF1
:1035D000064A11430180064B2343438010BD054B2F
:1035E000054A94210548FFF791FDC04600F0FFFF12
:1035F00000F8FFFF789200105C9400108892001091
:1036000001238340034A10681840431E9841C0B20A
:103610007047C04600E100E0002904D0034B186069
:10362000034B18607047034B1860FBE780E200E033
:1036300000E100E080E100E010B5012383401800C4
:10364000FFF7EAFF10BD000001238340014A136029
:103650007047C04600E200E0024B9B6810308000DB
:10366000C058704700ED00E070B504000D00EFF3A6
:10367000108672B60C4B1B68002BFBD0BFF35F8F1C
:103680002000FFF7E9FF094B984201D0A84205D17D
:10369000320029002000FFF765FF70BD044B054A8A
:1036A00070210548FFF732FD240100D0CD01001044
:1036B000CC920010A494001088920010F0B5CE4671
:1036C000474680B583B006000D00EFF3108872B650
:1036D000574B1B68002BFBD0BFF35F8F554B9A688D
:1036E00034001034A300D758534B9F4207D0AF4249
:1036F00000D19BE00197514BFB1A2F2B09D9424671
:1037000039003000FFF72EFF03B0C0BCB946B04609
:10371000F0BD3000FFF774FF814600213000FFF755
:103720008BFFBFF35F8FFCF79EFD002801D0844222
:1037300019D10123019C9C43230040495B1A5B4142
:1037400048495943090D49B20022A368AB4212D03F
:103750000622A256002A0DDB53009B189B00220074
:10376000364CE418F1E72021354B364AFF31364814
:10377000FFF7CCFC2200AB4251D106256557002D46
:1037800039DB6B005B199A002C4B9B189A68A2607E
:10379000DA79E27106229A56A2719B795BB2002B0C
:1037A00010DABD200002A0806B005B199B00234A49
:1037B000D318264A11789971157049463000FFF7E1
:1037C0003BFF9CE7201D6B005B199B001B4A9B186D
:1037D0001A1D9B88D90A1C2907D15B055B1502338A
:1037E00059005118FFF7D2FEDDE7194B194A9A210B
:1037F0001548FFF78BFC00280CD1002A08D0FF23C6
:103800009371154B9380114B1A78A2711970D4E7FC
:10381000094FF8E7201D1149FFF7D2FECDE7AA2195
:103820000F4B084A49000848FFF770FC024F66E753
:10383000240100D000ED00E0CD0100101C030020A9
:10384000E09300107494001088920010041300207C
:10385000C89300109494001000BDFFFF5603002091
:1038600004940010AAAA000010B5032304009C438E
:10387000064A9446644422681840C000FC338340E2
:103880009A43130081400B43236010BD00E400E025
:1038900070B50400012606432D4BF31A2F2B28D8B0
:1038A000FCF7E1FC00282BD0EFF3108C72B6294B0B
:1038B0001B68002BFBD0BFF35F8F2300244D5B1BE5
:1038C0005B412E4D5D432D0D6DB2234B9B688000F7
:1038D0001B58B3421BD00022032A32D853009B1836
:1038E0009B001B49CB189B795BB2AB421FD00132C6
:1038F000F2E77221194B1A4AFF311A48FFF706FC0A
:10390000BA21194B164A49001648FFF7FFFB124B24
:103910009B68164A1A50164B1A78A2711D70BFF395
:103920005F8F0C4B00221A608CF3108870BD08006A
:103930005300991889004118FF268E710D4A8A801C
:10394000E9E786210C4B064AFF310648FFF7DEFB0C
:103950001C030020240100D000ED00E00C940010B6
:10396000409400108892001034940010CD01001093
:103970000413002000BDFFFF54900010AAAA00000D
:1039800010B5002404E080212000FFF76DFF013412
:103990001F2CF8D910BD704710B5002802D00B6855
:1039A0004968984710BD0100002007E083001B18FC
:1039B0005B00501C08601078C01830380A68137813
:1039C000303BDBB2092BF1D97047F0B5DE465746E4
:1039D0004E464546E0B583B093461F000C9B9A4681
:1039E0000D9C0E9B99460F9B9B0703D0B8460F007A
:1039F000060022E00192A34688464E46B9460700DB
:103A0000B44207D2551C4B4641462020B8470134EA
:103A10002A00F5E73D004F465C46019B9B46B146B8
:103A20004646B84637002E0007E0013C551C534679
:103A3000185D43463900B0472A00002CF5D1350007
:103A40003E0047460F9B9B0707D4100003B0F0BC15
:103A5000BB46B246A946A046F0BDB0464E46B94662
:103A60002F005D46531BB342EFD2541C4B464146D8
:103A70002020B8472200F5E7F0B5CE46474680B58E
:103A800085B0944698460C9D0D9C0EAB1B789946CC
:103A9000109A119B129EB7071CD4002B0CD0F7076D
:103AA0000AD54F46002F02D10C37374204D0013BD4
:103AB00002E030272F550134944201D21F2CF8D94F
:103AC000F70707D59C4205D21F2C03D830272F5566
:103AD0000134F5E7F70615D5770505D4002C03D09A
:103AE000944224D09C4222D00F9A102A2BD00F9AB5
:103AF000102A30D00F9A022A35D01F2C02D830223B
:103B00002A5501341F2C05D84A46002A31D02D22CF
:103B10002A55013403960293019400954346624668
:103B2000FFF753FF05B0C0BCB946B046F0BD621EFA
:103B3000012C06D00F9F102F01D01400D4E7023CB7
:103B4000D2E71400D0E7B206D1D41F2CCFD8782208
:103B50002A550134D1E7B206CCD51F2CCAD8582239
:103B60002A550134C9E71F2CC7D860322A550134C1
:103B7000C3E7720703D52B222A550134CAE732075F
:103B8000C8D520222A550134C4E7F0B5DE46574691
:103B90004E464546E0B593B081468A460892099361
:103BA0001CAB10CB1B789B461E9D219B9846002C7E
:103BB00003D1102342469A4390468023DB004646B9
:103BC0001E4042461A4212D0002C22D000260EE09F
:103BD0003033D9B2771C0AAB99552900200000F088
:103BE000D9FFAC4216D31F2F14D83E000400290081
:103BF000200000F0CFFFCBB2092BE9D94246920654
:103C000005D54121C918C9B20A39C9B2E2E7612113
:103C1000F8E7270043460693209B05931F9B0493D8
:103C200003955B46029301970AAB0093099B089AA0
:103C300051464846FFF720FF13B0F0BCBB46B246E2
:103C4000A946A046F0BDF0B5DE4657464E4645466D
:103C5000E0B595B0089009910A920B931E9E1F9CA7
:103C600020AB1B789B46229B9946239D269B9A4618
:103C70003300234303D1103352469A4392468023A4
:103C8000DB0057461F4052461A4219D033002343E7
:103C90002DD0002714E03033DAB27B1C98460CABF1
:103CA000DA554A462B003000210000F0B9FFA5424A
:103CB0001FD819D043461F2B1BD8474606000C00BF
:103CC0004A462B003000210000F0AAFFD3B2092B96
:103CD000E1D95246920605D54122D218D2B20A3A0B
:103CE000D2B2DAE76122F8E7B145E3D901E0002377
:103CF000984653460693259B0593249B04934B4675
:103D000003935B460293434601930CAB00930B9BDA
:103D10000A9A09990898FFF7AFFE15B0F0BCBB46A8
:103D2000B246A946A046F0BDF0B5DE4657464E461F
:103D30004546E0B591B083468A460C9298461A9C57
:103D400008941B9D099522002B002000290001F0FA
:103D5000DEF9002800D0E5E001225242D74B2000D6
:103D6000290001F0CFF9002800D0DBE00122524207
:103D7000D34B2000290001F0AFF9002800D0D1E09A
:103D800000220023089D2800099E310001F0A4F9BB
:103D9000002800D0DDE0089809990690079180235B
:103DA000DB001E9A1A400D921E9A1A4201D1062378
:103DB0001C930698079904000D000A0006000243B0
:103DC00000D1D1E0080D4005400DBE4CA446604432
:103DD0000A03120BBC4B13431F0001F0ABF9BB4AA3
:103DE000BB4B01F037F9BB4ABB4B01F021F9040092
:103DF0000D000022B94B3000390001F010F9B84A2B
:103E0000B84B01F027F902000B002000290001F057
:103E10000FF901F0A7F9814601F08CF904000D00BB
:103E2000B14AB24B01F016F90022B14B01F000F992
:103E300001F098F90600AF4AAF4B2000290001F0CD
:103E400009F904000D00300001F074F9AB4AAC4BE5
:103E500001F000F902000B002000290001F0DFF85A
:103E600004000D0002000B0001F0F4F80A900B9121
:103E7000A44BF31800261F0522002B002000290068
:103E800001F0D6F80E900F9122002B000020802127
:103E9000C90501F0C4F804000D0000229A4B0A98ED
:103EA0000B9901F0CEF80022984B01F0C1F8020006
:103EB0000B000A980B9901F0C4F80022944B01F012
:103EC000B7F802000B000A980B9901F0BAF802004B
:103ED0000B002000290001F0ABF802000B000E9847
:103EE0000F9901F0AEF80022774B01F0A1F83200F3
:103EF0003B0001F0AFF806000F0004000D00069A29
:103F0000079B01F0FFF8002830D001235B429C465C
:103F1000E14400227D4B3000390001F092F80400AA
:103F20000D0023E01E9B04931D9B03931C9B029397
:103F3000089A099B0092019343460C9A51465846B1
:103F400000F0FCF811B0F0BCBB46B246A946A04652
:103F5000F0BD0023002406930794069580231B06DA
:103F60009C46664407961AE7002399464B466333FE
:103F7000C62B1ED804261E9B1B0526D52B002343CB
:103F80000FD0644A644B0698079901F0B3F80028F3
:103F900079D00022614B0698079901F09DF800281E
:103FA00071D01C9B4B4506DD4A46981A431E1C9354
:103FB00003E00526DFE700231C938023DB001E9A25
:103FC0001A431E920026002399461D9B9E4264D2EE
:103FD0009F1B02231E9A1A400A921E9A134202D075
:103FE000002E00D000274B46002B07D022002B00CC
:103FF0000698079901F025F8069007910022002302
:104000000898099901F068F8002848D1444B1E9A95
:104010001340049303971C9B0293069B079C0093F9
:10402000019443460C9A5146584600F087F8002EFA
:1040300000D187E71E9B9B063DD54525441C434682
:10404000020051462800D8474B46DA179B185340C8
:1040500005220592013E0496002203920A32029242
:104060004A46D00F019000934346220051465846DD
:10407000FFF78BFD0A9B002B00D163E702005F4630
:104080000C9E1D9D54E01C9B002B9ED00D9B002B75
:104090009BD01C9B013B1C9397E7002799E7069C4C
:1040A000079D2200290080200006844661440B0001
:1040B00006920793AAE76525C0E7C046FFFFEF7F9A
:1040C000FFFFEFFF01FCFFFF0000F03FFB799F5077
:1040D0001344D33FB3C8608B288AC63F0000F83F23
:1040E00061436F63A787D23F71A379094F930A4059
:1040F0000000E03F1655B5BBB16B0240EF39FAFE48
:10410000422EE63FFF03000000002C400000244048
:10411000000018402D431CEBE2361A3F80842E41EC
:10412000FFF7FFFF541C434651462020B8472200AA
:10413000931BAB42F6D3100004E7C046F0B5DE4651
:1041400057464E464546E0B595B0069007919346D2
:104150009946209F1E9A1F9B1000190000F0D7FF60
:10416000002831D101225242BF4B1E981F9900F006
:10417000B3FF002837D101225242BC4B1E981F9931
:1041800000F0C0FF00283DD10022B94B1E981F99B6
:1041900000F0B8FF002850D10022B64B1E981F999E
:1041A00000F09AFF002848D1002200231E981F9992
:1041B00000F092FF002850D100239846229B5B0517
:1041C00000D4B6E0002458E0229B0393219B029385
:1041D00003230193A84B00934B465A460799069830
:1041E000FFF7F3FB0EE1229B0393219B0293042331
:1041F0000193A24B00934B465A4607990698FFF746
:10420000E4FBFFE00423229A1A4022990B4210D0CB
:104210009B4B002A0FD004222299039121990291ED
:10422000019200934B465A4607990698FFF7CDFB3B
:10423000E8E0944BEDE70322EEE7229B0493219BF9
:10424000039302971E9B1F9C009301944B465A4672
:1042500007990698FFF768FDD4E01E9A1F9B00207F
:10426000002100F0DCFE1E901F9101239846A5E777
:104270000CAB30221A55013F01341F2C01D8092FF5
:10428000F6D81E981F9900F06DFF050000F052FF50
:1042900002000B001E981F9900F0C1FEFA007A4B35
:1042A0009B181A685B680A920B9300F0D3FE089083
:1042B000099100F07BFF060000F038FF02000B00C0
:1042C0000898099900F0ABFE0890099100226F4B05
:1042D00000F018FF00282ED00136300000F026FF35
:1042E00002000B000A980B9900F0FCFE002801D098
:1042F00001350026002F2CD1280000F01BFF020002
:104300000B001E981F9900F08AFE06000F00002285
:104310005E4B00F0E1FE002846D100225B4B3000EE
:10432000390000F0EFFE00283ED1EB073CD5013507
:104330003AE0062746E70022544B0898099900F016
:10434000CBFE0028D6D1002E01D0F307D2D50136FE
:10435000D0E7AA461F2C11D8013F0A21300000F0F7
:1043600019FC651C30310CAB19550A21300000F0E6
:1043700011FC092E0ED906002C00EBE755461F2C28
:104380000CD87B1E002F09D00CAA302111551F001C
:104390000134F4E72B0055461C00F0E71F2C03D82E
:1043A0000CAB2E221A5501341F2C10D80A212800DC
:1043B00000F0C4FB661C30310CAB19550A212800F3
:1043C00000F0BCFB051E01D03400EDE734000323F0
:1043D000229A1340012B1CD01F2C06D84346002BD9
:1043E00032D00CAB2D221A550134229B0393219B12
:1043F000029301940CAB00934B465A4607990698DA
:10440000FFF7E3FA15B0F0BCBB46B246A946A0469A
:10441000F0BD219B002B13D04346002B02D10C335F
:1044200013420FD0219B013B2193190003E00CABF9
:1044300030221A5501348C42CED21F2CF7D9CBE74B
:104440002199F8E72199F6E7229B5B0704D50CAB8D
:104450002B221A550134C8E7229B1B07C5D50CAB8C
:1044600020221A550134C0E7FFFFEFFFFFFFEF7F67
:1044700065CDCD4165CDCDC1CC940010D094001058
:10448000C4940010C0940010B89600100000E03FE3
:10449000F0B5DE4657464E464546E0B593B08246F7
:1044A0008B4690461193002900D1EBE20027554638
:1044B000119B1878002800D1E7E2252809D07C1C40
:1044C00043463A005946A847119B013311932700F0
:1044D000EEE7013311930024119A11780B00203B71
:1044E000D8B2102803D88300D048C3589F460B0089
:1044F000303BDBB2092B2CD92A292FD000230A9379
:10450000119B1A782E2A39D000239A46119A1378D3
:10451000683BD9B2122976D88B00C549CB589F4643
:1045200001231C4301321192D6E702231C430132BE
:104530001192D1E704231C4301321192CCE70823E6
:104540001C4301321192C7E710231C430132119220
:10455000C2E711A8FFF727FA0A90D1E71C9B1A1DA2
:104560001C921868002804DB0A90119B01331193F8
:10457000C6E702231C4343420A93F6E78022D20097
:1045800014435A1C11925A781300303BDBB2092BAA
:1045900004D92A2A07D000239A46B7E711A8FFF7C3
:1045A00002FA8246B2E71C9B1A1D1C92186800286A
:1045B00004DB8246119B01331193A7E70020F8E743
:1045C00080235B002343511C119152786C2A01D047
:1045D0001C0018E0C0239B001C430131119112E024
:1045E00080232343511C11915278682A01D01C006A
:1045F00009E0C0231C430131119104E080235B00DA
:104600001C4301321192119B18780300253BDAB24A
:10461000532A00D92CE29300864AD3589F46802320
:104620009B001C4301321192EDE780235B001C4389
:1046300001321192E7E7782809D0582838D06F283E
:1046400038D0622838D010239C430A2600E0102678
:10465000582833D0692803D0642801D00C22944311
:10466000630501D50122944369282AD0642828D003
:10467000A30500D59FE0E30500D5B8E0630600D4AC
:10468000CAE01C9A111D1C911168FF220A40059472
:104690000A9B0493534603930296002301930092CE
:1046A00043463A0059462800FFF76FFA070027E013
:1046B0001026CDE70826CBE70226C9E720221443BF
:1046C000C8E7A30520D4E30550D4630666D51C9A39
:1046D000111D1C911168FF220A40D317D1185940AF
:1046E00005940A9B0493534603930296D20F0192BA
:1046F000009143463A0059462800FFF746FA070062
:10470000119B01331193D3E61C9BDA1D07218A43C9
:10471000110008311C91116853689C46DB170C93FB
:104720000D930C9A0D9B100048400E90624653402A
:104730000F930E980F990C9A0D9B801A99410E9029
:104740000F9108940A9B07935346069304960023FF
:1047500005936346DA0F02920090019143463A00B6
:1047600059462800FFF76FFA0700C9E71C9A111D88
:104770001C911268D317D118594005940A9B0493D1
:10478000534603930296D20F0192009143463A009A
:1047900059462800FFF7F9F90700B1E7230605D5C8
:1047A0001C9A111D1C910023D25E96E71C9A111DC4
:1047B0001C91126891E71C9BDA1D07218A431100A6
:1047C00008311C9108940A9B07935346069304965C
:1047D00000230593029313685468009301944346A1
:1047E0003A0059462800FFF72EFA070088E71C9A7E
:1047F000111D1C9105940A9B049353460393029642
:10480000002301931368009343463A005946280059
:10481000FFF7BBF9070073E723060DD51C9A111D9E
:104820001C9112681204120C31E7C046D894001093
:104830001C950010689500101C9A111D1C9112689F
:1048400025E746281AD01C9B0733072293431A00FA
:1048500008321C9204940A9A0392524602925C68AF
:104860001B680093019443463A0059462800FFF71D
:1048700065FC0700119B0133119319E620231C43AB
:10488000E1E7672801D0472802D180231B011C43A0
:10489000452801D0472801D120231C431C9B073306
:1048A000072293431A0008321C9204940A9A039236
:1048B000524602925C681B680093019443463A009A
:1048C00059462800FFF730FA0700119B0133119376
:1048D000EEE502231A002240924623421FD0012413
:1048E0001C9B1A1D1C927A1C9146187843463A006C
:1048F0005946A8475346002B16D1119B01331193FB
:104900004F46D5E5561C434659462020B84723005C
:1049100032005C1C9D42F5D83D001700E0E7012302
:104920003A002F000A9DF4E74A46A9460A9D06E090
:10493000571C434659462020C84734003A00661C9D
:10494000A542F5D84D469146D7E71C9B1A1D1C92EF
:104950001B6899465346002B00D1013B4E4601E0AF
:10496000013613003278002A02D05A1E002BF7D1EC
:104970004B46F21A10928023DB0026001E401C4298
:1049800003D0524501D95346109302231A00224006
:104990000B92234205D03A0037004C46A9465546B3
:1049A00020E03A00109B5F46B3462E0006E0551CFF
:1049B000434639002020B04723002A005C1C0A9996
:1049C0009942F4D835005E46BB46109437004C46F9
:1049D000A946554606E01D000134561C434659467B
:1049E000C84732002078002804D0002FF4D06B1E76
:1049F000002DF0D117004D460B9B002B03D1119BCE
:104A00000133119354E50A9F109B06E0561C434660
:104A100059462020A847230032005C1C9F42F5D84D
:104A20001700ECE721231C431C9B1A1D1C921B68DA
:104A30000093059408230493534603931023029391
:104A40000023019343463A0059462800FFF79DF89A
:104A50000700119B013311932AE57C1C43463A0061
:104A600059462520A847119B0133119327001FE5C4
:104A70007C1C43463A005946A847119B01331193C9
:104A8000270015E50A4B9A4610E5AA46474502D38A
:104A900043465A1E00E03A00434659460020D0479C
:104AA000380013B0F0BCBB46B246A946A046F0BDE4
:104AB0009739001000B585B0029003910121009351
:104AC00013004A4202A90248FFF7E2FC05B000BD0C
:104AD0009939001001480421014B18477003002048
:104AE000054B001010B5010018231B8814221088F4
:104AF000984710BD10B5010018231B881622108896
:104B0000984710BDF0B5C64600B507000E00002559
:104B10000123984600E00135B5420AD2AC003C19A9
:104B20002068FFF7DFFF20600028F4D100239846BB
:104B3000F1E7404680BCB846F0BD0000144A936FD0
:104B40009B0815D29066D166002905D0FFE7FFE7E4
:104B5000FFE7516F106F704704B580210906C21737
:104B60005140002800D0C84303F0DEFE002104BD00
:104B7000936F5B08FDD3F0B5946ED56E576F166FCB
:104B8000FFF7E0FF9466D56657671667F0BD000033
:104B9000000000D0134A936F9B0813D21066516631
:104BA000002905D0FFE7FFE7FFE7516F106F70475F
:104BB00004B5002801D00020C04303F0B5FE002159
:104BC00004BDC046936F5B08FDD3F0B5946ED56EFF
:104BD000576F166FFFF7E2FF9466D5665767166743
:104BE000F0BD0000000000D094464E4A926F92083B
:104BF000624601D230E0C046F0B54A4EB56F6D084E
:104C0000FCD3346E756E776F366F00F025F89446DE
:104C1000444A14665566576716676246F0BDC0463B
:104C20009446404A926F9208624601D258E0C046CC
:104C3000F0B53C4EB56F6D08FCD3346E756E776F72
:104C4000366F00F04DF89446364A1466556657673D
:104C500016676246F0BDC046002B24DB11D0002948
:104C60003EDA00B5C943404200D1013100F038F8C6
:104C7000C943404200D10131DB43524200D10133EC
:104C800000BD002AEBD1002801D1002905D0002069
:104C9000C90FC90701D1C043410800B503F03CFE6C
:104CA0000022002300BD00B500290ADBDB4352428D
:104CB00000D1013300F014F8C943404200D1013162
:104CC00000BDC943404200D10131DB43524200D113
:104CD000013300F005F8DB43524200D1013300BD3F
:104CE000002923D1002B18D1002A0CD0BC460D4F2F
:104CF00038667A6600210023FFE7FFE7FFE77A6F57
:104D0000386F67467047002801D00748010000B59A
:104D100003F002FE0022002300BD02000B00002071
:104D200000217047000000D0FFFFFFFF002B00D0E4
:104D3000BDE0130C26D1002AE7D080B4104F3966AD
:104D40007A66FFE7FFE730B4040C7B6F396F1B0412
:104D500023433B66FFE7FFE7FFE7C04684B27B6F74
:104D60003D6F1B0423433B66FFE7FFE7C04600237C
:104D70002C042D0C7A6F386F00196941B0BC704754
:104D8000000000D0F0B594460025140E01D11202A7
:104D90000835140F01D112010435940F01D192008E
:104DA0000235D40F01D152000135D40B0134254F07
:104DB0007C66254C3C660E0C93B2FFE7FFE7FFE7ED
:104DC0003C6F6643360C7703BE467343DF0B5B04D0
:104DD000C01AB941130C7343DB18C91ACE086643D5
:104DE000360CB64493B273431F0F1B01C01AB9416E
:104DF000130C73431F0B1B05C01AB941860D8F029C
:104E00003E436643360C092D24DB520A7243801A56
:104E10007703460A6643360C16235B1BDE40DF40F1
:104E2000BF1964466643821B704604350633010091
:104E3000D940A840C01900D30131A24206D20023B4
:104E4000F0BD0000000000D0FFFFFFFF121B01308B
:104E5000F3D3F1E709277F1BFE406446A2B27243F9
:104E6000801A00D20139220C7243130C1204821AE8
:104E700099410B007046043513370100F940A840F2
:104E8000801900D30131002B02D1A2420AD2F0BD19
:104E9000013000D30131121BFAD2013BF8D1A242FA
:104EA00000D2F0BD013000D30131121BF7E7F0B59D
:104EB0001C0C00D080E00CB400251C0A04D11B029D
:104EC000160E3343120208351C0B04D11B01160FBA
:104ED0003343120104359C0B04D19B00960F3343DE
:104EE00092000235DC0B02D192185B4101351C00A7
:104EF000971864410134464F7C66464C3C660E0C64
:104F0000FFE7FFE7FFE7C0463C6F6643360C7703D9
:104F1000BE4697B27743C01B00D20139C01B00D2F6
:104F200001399FB27743C91BC91B170C77437E0415
:104F3000FF0B801BB941CE086643360C0C2D33DBCA
:104F4000B644120B1F053A431B0B97B27743C01BA5
:104F500000D201399FB27743C91B170C77433E0437
:104F60003F0C801BB941860D8F023E4366432927C3
:104F70007F1BFE400C3D7746AF40BF1930BCA2B24C
:104F8000ABB272437343801A9941220C7243130CE3
:104F90001204801A994102000B000137001BA9413D
:104FA000F9D2781E0021F0BD0C277F1BFE4077460A
:104FB0007F0BAF40FF19E0E700245D1C07D0144FC2
:104FC0007D663966FFE7FFE7FFE7FFE73C6F95B2D5
:104FD0009EB265436643401BB141150C1E0C6543F0
:104FE000664336042F0C3E432D04401BB1419942C9
:104FF00004D202000B0020000021F0BD01D190423C
:10500000F7D3801A994101349942F2D3F6E70000B0
:10501000000000D0FFFFFFFF48404140484018B467
:10502000114B5B68FC46019308BD04DFB7520010CA
:1050300018B40D4B1B68FC46019308BD00DFC1523C
:10504000001018B4084BDB68FC46019308BD0CDF68
:105050007955001018B4044B9B68FC46019308BDB9
:1050600008DF1D5400100000A0100020FFB55040C4
:105070004240504059404B40594000E0FFB5154F69
:105080004C00640D03D0BC4204D10C0314D80020A2
:10509000090D09055C00640D03D0BC4204D11C035A
:1050A0000AD800221B0D1B0501264B4009D44B409A
:1050B00003D58B4200D18242FFBD9942FCD1904280
:1050C000FFBD0B43DB1803431343F5D0C943491815
:1050D000FFBD0000FF07000000B5FFF7CFFF8041D4
:1050E00000BDC04600B5FFF7C9FF01D9002000BDD3
:1050F000012000BD00B5FFF7B9FF01D9002000BDB8
:10510000012000BD00B5FFF7B1FF804100BD0120C7
:1051100040054A00121804D85A00121801D800207D
:1051200070470120704700207047000000210028D0
:1051300005D17047C1174840401AFAD0C90713B5C6
:10514000064B1B6898470CBC441CA2401005120B70
:105150000349091B09051943114310BDA011002083
:105160001F04000010B54C00620D8023D218DB0034
:10517000D21A5B057E2A10DD9E3A13DACC1709039A
:10518000490819435242D140640001341532202AA3
:1051900005DAD0400843604310BD002010BD08462A
:1051A000604310BDC80FC018013810BD18B4044BBF
:1051B0005B6AFC46019308BD24DFA5570010000080
:1051C000A010002070B513231C78012C0FD0012CE7
:1051D0000FDC022C02DC1D4A1D4B9A6470BD990045
:1051E0001A481B4A885001331F2BF8D9EFE70023D8
:1051F000FAE71848FFF77EFC05001748FFF77AFC2E
:10520000023803789B007F2B19DD8022290010488B
:1052100000F048FC022CDCD1104B1A88B5231B028D
:105220009A4209D10E4B1A880E4B9A4204D10E4B6A
:105230001A880E4B9A42CCD00020FDF785FF0C4B0C
:105240000C4A30210C48FDF761FFC0467D5200102A
:10525000A0100020534400005346000054380000C2
:10526000D8380000494600009C380000594600002C
:1052700008970010B89700106897001007B56046AF
:10528000002800D100BE01880A0A0230DF2AFAD1C4
:10529000C9B2820804D3028840880004104300E0A9
:1052A0000068024A5050039007BD0000A010002083
:1052B0000FB403BC0CBCF0B50124E407634000E06C
:1052C000F0B50C0DCF0F661E3605891B640503D3A0
:1052D000C943404200D30131640D03D0661CF60A75
:1052E00007D0E41B00207F00791C89078912803CCD
:1052F00024031D0DDF0F6E1E36059B1B6D0503D3AA
:10530000DB43524200D301336D0D03D06E1CF60A0D
:1053100007D0ED1B00227F007B1C9B079B12803D6A
:105320002D032F1B661B58D4A446202E46DA2037A7
:105330001400BC401D00BD40F24033412A43801898
:105340005941CB0F05D0C943C043002264425041AC
:10535000514162464D0D28D10D0D07D100281FD0B7
:10536000241940414941013A0D0DF9D0640006D39A
:10537000013000D30131002C01D140084000013A36
:105380000BD4941CE40A04D112051144DB07194420
:10539000F0BDD907204B194300E0D9070020F0BD2C
:1053A0000029DDD1002CDBD1F0BD0132C607400859
:1053B000CD0728434908002EE1D0D9E73C2E29DA51
:1053C000203E40371400BC4000D00124F24014437A
:1053D0001A00BB401C43D317ACE7AC46202F08DAB9
:1053E00020360400B4400D00B540F8403941284350
:1053F000A5E73C2F0CDA203F40360400B44000D033
:105400000124F84004430800B1400C43C117EAE707
:1054100010001900002494E70000F07FF0B50C0D97
:10542000661E3605891BE60A6405640D02D0651CFC
:10543000ED0A04D0002001210905803C2403A44684
:105440001C0D671E3F05DB1BE70A6405640D02D0D7
:10545000651CED0A04D0002201231B05803C2403B7
:105460007740644497B484B296B27443070C7E4389
:10547000150C6F4380B26843361802D30120000434
:105480003F183004350C00197D41844688B29AB229
:1054900050430C0C62431F0C7C438EB27E43921926
:1054A00002D301263604A4191604170C36186741D6
:1054B00001BC81B29AB25143040C62431B0C5C43A1
:1054C00080B25843121802D301200004241810049B
:1054D000130C401863412D185E410020474106BC63
:1054E00088B293B258430C0C6343120C544389B2F4
:1054F00051435B1802D301210904641819041A0CE2
:10550000091862416D1856410020474118BCF90244
:10551000720D1143F0026A0D1043ED020A0D03D122
:105520006D1940414941013B124E9B1B7600B3422D
:105530000ED26D0007D30130002671416646354317
:1055400001D1400840001B05C918E4072144F0BD03
:105550000BDA013306D1013004D101314F0D01D0F6
:105560004908F2E7E1070020F0BD013631050020CF
:10557000EBE70000FF030000F0B51C0D671E3F05C0
:10558000DB1BE70A6405640D02D0661CF60A04D032
:10559000002201231B05803C2403D0252D06002674
:1055A000F6432E661E096E66CE0FF619B446490004
:1055B0004F0D02D07E1CF60A03D000200021403F90
:1055C0003F033E1BB600B444013F7F05C91B490899
:1055D0002E6F013676089C02950D25437543ED1319
:1055E0007543AD1301356D10F603761B0CB4CC0278
:1055F000450D2C43A2B2B3B25A43270C7B43350C62
:105600006F43A4B26C431B1902D3012424043F1935
:105610001C041D0CA4187D4124196D41009A91B2FF
:10562000ACB26143170C7C432B0C5F4392B25A43DC
:10563000A41802D301221204BF182204230C52180A
:105640007B41019C6C431B19520ED9010A43440152
:10565000A01A81B2B2B2514303145A43360C7343B9
:1056600087B27743D617D21900277E4136049B199B
:105670001704160C7F185E417316ED18F30100260F
:1056800080337541A90F06D16400690AE8055B0AF9
:10569000184309D22FE00422944480337541A90AAB
:1056A000A8059B0A184326D3404149412404009A87
:1056B000019B0D005543641B4343E41A95B286B227
:1056C0007543170C7E43030C5F4392B25A43B618DE
:1056D00002D301221204BF183204330C52197B4149
:1056E00052429C41002C02D400220130514140081A
:1056F000CA071043490802B06246D7079210084B08
:10570000D218084B9A4203D212058918C919F0BD64
:105710000020002A01DC3900F0BD01331905F5E74E
:10572000FD030000FE070000624618CA94460029E7
:105730001ADAC01861415B463B415C46B4405246B0
:10574000FA40224344464D4662416B419046994699
:105750002B46B3403D41FC401C4352465B46A241B0
:10576000AB4192469B467047C01AA1414B463B4114
:105770004C46B4404246FA40224354465D4662419C
:105780006B4192469B462B46B3403D41FC401C4337
:1057900042464B46A241AB41904699467047002095
:1057A00000217047002200B5203200F004F8080004
:1057B00000BD000000220B15F1D410B5944600F096
:1057C0002FF81414013400DA0021CB17134C2047B2
:1057D0006244343A0CD40C2A07DA04009140904019
:1057E00052422032D440214310BDD843D94310BD8A
:1057F000203207D40C469440524220321141D0400E
:10580000204310BD0800C917203203D45242203271
:10581000104110BD1800190010BD0000D157001034
:105820000A0DCC0F531E1B05C91A520503D3C943D9
:10583000404200D30131520D03D0531CDB0A07D084
:10584000121B00206400611C89078912803A120330
:10585000014BD21A70470000FF030000514343433D
:10586000C9188C46110C83B24B4310B4040C61432D
:1058700092B280B2504362431C041B0C001910BC4E
:1058800059411304120CC018514161447047000083
:1058900048404140484000239C46094B5B681847FC
:1058A00000239C46064B1B68184700239C46044B6C
:1058B000DB68184700239C46014B9B681847000093
:1058C000A4110020491A002808D10846704700009A
:1058D000C10FC90700D54042002817D0F44603B4D1
:1058E0000B4B1B68984706BC81409E384042803174
:1058F00007D20B0607D04900490AC00510430843E8
:1059000060470130F8E7490A8902F5E7704700006F
:10591000A0110020034BDB6FFC4618477CDF595A6F
:1059200000100000A411002070B513231D782A4830
:10593000FFF7E0F80400012D11D0012D09DDA31EB1
:105940001B789B007F2B40DD80222100234800F044
:10595000A9F82348FFF7C6F8224B186070BD5422FF
:1059600001001E4800F09EF81F4B1A881F4B9A42F8
:105970001CD1A7239B011A881D4B9A4216D11D4B9F
:105980001A881D4B9A4211D11C4B1A8894239B01F3
:105990009A420BD11A4B1A881A4B9A4206D11A4BCB
:1059A0001A681A4B9A4201D1152307E01848FDF7EF
:1059B000CBFB99001748094A885001331F2BF8D9AF
:1059C000144A064B1A62DA61B7E7134B134A4221B5
:1059D0001348FDF79BFBC04653460000A41100206E
:1059E0004C330000A0110020EE290000C40F00007D
:1059F000C20D0000962B0000C0B50000182B00005F
:105A0000CC2A000010B50000FC2C000051ED87648A
:105A1000D4900010255A0010CC9700104C9800101C
:105A20000098001007B56046002800D100BE01882C
:105A30000A0A0230DF2AFAD1C9B2820804D30288E6
:105A400040880004104300E00068024A5050039070
:105A500007BD0000A4110020C30FDB0741000A0EA0
:105A600007D0FF2A08D00909054A891819434007B9
:105A700070471900002070470249C918FAE7000072
:105A8000000000380000F07F01480421014B184756
:105A900080030020054B0010014B1B6818470000D5
:105AA00080030020014B5B68184700008003002042
:105AB000F8B507000D001600437C002B02D000242F
:105AC00000200CE003681100280098472DE03B7C83
:105AD00010E0022115483B689847601C0134B4422D
